:100000000C942A000C943F000C943F000C943F0089
:100010000C943F000C943F000C943F000C943F0064
:100020000C943F000C943F000C943F000C943F0054
:100030000C943F000C943F000C943F000C943F0044
:100040000C943F000C943F000C943F000C943F0034
:100050000C943F0011241FBECFE5D8E0DEBFCDBF1A
:1000600010E0A0E6B0E0E6E1F2E002C005900D92FB
:10007000A237B107D9F70E94AD000C9409010C9486
:10008000000088BB82B38F7D82BB82B38F7B82BB33
:1000900082B3806882BB8FE39CE90197F1F700C0CF
:1000A000000082B38F7782BB089588BB82B38062E1
:1000B00082BB82B38F7B82BB82B3806882BB8FE3BB
:1000C0009CE90197F1F700C0000082B38F7782BBF3
:1000D000089588E30E9441008FE99FE00197F1F7BE
:1000E00000C0000081E00E9441008FE99FE001977D
:1000F000F1F700C0000082E00E9441008FE99FE01C
:100100000197F1F700C0000086E00E9441008FE9EE
:100110009FE00197F1F700C0000080E80E944100D5
:100120008FE99FE00197F1F700C0000008950F9359
:100130001F93CF93DF938C01C0E0D0E003C00E94F7
:1001400055002196F801EC0FFD1F80818111F7CF3A
:10015000DF91CF911F910F9108958FEF84BB15BA56
:10016000EFE3FCE93197F1F700C0000015BAFFEFAB
:1001700029EF30E0F15020403040E1F700C00000AE
:1001800087BB80EE81BB0E9469008FE19EE40197EE
:10019000F1F700C000008CE00E944100EFE1FEE4B6
:1001A0003197F1F700C0000080E690E00E949700D0
:1001B000FFEF23ED30E3F15020403040E1F700C085
:1001C000000080EC0E9441008FEF93EDE0E381504E
:1001D0009040E040E1F700C000008EE690E00E9411
:1001E0009700FFEF23ED30E3F15020403040E1F77E
:1001F00000C0000081E00E9441008FEF93EDE0E33A
:1002000081509040E040E1F700C0000080E090E0C5
:060210000895F894FFCFF1
:100216002053616E6974697A696E672E2E202020DC
:020226000000D6
:00000001FF
