S00B00006C63642E73726563E6
S11300000C942A000C943F000C943F000C943F0085
S11300100C943F000C943F000C943F000C943F0060
S11300200C943F000C943F000C943F000C943F0050
S11300300C943F000C943F000C943F000C943F0040
S11300400C943F000C943F000C943F000C943F0030
S11300500C943F0011241FBECFE5D8E0DEBFCDBF16
S113006010E0A0E6B0E0ECE0F2E002C005900D92F2
S1130070AC37B107D9F70E94AD000C9404010C947D
S1130080000088BB82B38F7D82BB82B38F7B82BB2F
S113009082B3806882BB8FE39CE90197F1F700C0CB
S11300A0000082B38F7782BB089588BB82B38062DD
S11300B082BB82B38F7B82BB82B3806882BB8FE3B7
S11300C09CE90197F1F700C0000082B38F7782BBEF
S11300D0089588E30E9441008FE99FE00197F1F7BA
S11300E000C0000081E00E9441008FE99FE0019779
S11300F0F1F700C0000082E00E9441008FE99FE018
S11301000197F1F700C0000086E00E9441008FE9EA
S11301109FE00197F1F700C0000080E80E944100D1
S11301208FE99FE00197F1F700C0000008950F9355
S11301301F93CF93DF938C01C0E0D0E003C00E94F3
S113014055002196F801EC0FFD1F80818111F7CF36
S1130150DF91CF911F910F9108958FEF84BB15BA52
S1130160EFE3FCE93197F1F700C0000091E095BBA3
S1130170FFEF29EF30E0F15020403040E1F700C0BC
S1130180000087BB80EE81BB0E9469008FE19EE482
S11301900197F1F700C000008CE00E944100EFE1FC
S11301A0FEE43197F1F700C0000080E690E00E9481
S11301B09700FFEF23ED30E3F15020403040E1F7AA
S11301C000C0000080EC0E9441008FE19EE4019792
S11301D0F1F700C000008FE690E00E9497009FEFC7
S11301E0E3EDF0E39150E040F040E1F700C000009F
S11301F081E00E9441008FE19EE40197F1F700C085
S10F0200000080E090E00895F894FFCF27
S113020C202077656C636F6D6521202020200054BD
S10F021C656D702E4E6F726D616C2000D9
S9030000FC
